{"abi":[{"type":"constructor","inputs":[{"name":"_stakingToken","type":"address","internalType":"contract IERC20"},{"name":"initialOwner","type":"address","internalType":"address"}],"stateMutability":"nonpayable"},{"type":"function","name":"GRID_SIZE","inputs":[],"outputs":[{"name":"","type":"uint8","internalType":"uint8"}],"stateMutability":"view"},{"type":"function","name":"TOTAL_PIXELS","inputs":[],"outputs":[{"name":"","type":"uint16","internalType":"uint16"}],"stateMutability":"view"},{"type":"function","name":"changePixelColor","inputs":[{"name":"pixelId","type":"uint16","internalType":"uint16"},{"name":"color","type":"uint24","internalType":"uint24"}],"outputs":[],"stateMutability":"nonpayable"},{"type":"function","name":"changePixelsColors","inputs":[{"name":"pixelIds","type":"uint16[]","internalType":"uint16[]"},{"name":"colors","type":"uint24[]","internalType":"uint24[]"}],"outputs":[],"stateMutability":"nonpayable"},{"type":"function","name":"owner","inputs":[],"outputs":[{"name":"","type":"address","internalType":"address"}],"stateMutability":"view"},{"type":"function","name":"pixels","inputs":[{"name":"","type":"uint16","internalType":"uint16"}],"outputs":[{"name":"owner","type":"address","internalType":"address"},{"name":"color","type":"uint24","internalType":"uint24"},{"name":"stakeAmount","type":"uint256","internalType":"uint256"}],"stateMutability":"view"},{"type":"function","name":"renounceOwnership","inputs":[],"outputs":[],"stateMutability":"nonpayable"},{"type":"function","name":"stakePixel","inputs":[{"name":"pixelId","type":"uint16","internalType":"uint16"},{"name":"amount","type":"uint256","internalType":"uint256"},{"name":"color","type":"uint24","internalType":"uint24"}],"outputs":[],"stateMutability":"nonpayable"},{"type":"function","name":"stakePixels","inputs":[{"name":"pixelIds","type":"uint16[]","internalType":"uint16[]"},{"name":"amounts","type":"uint256[]","internalType":"uint256[]"},{"name":"colors","type":"uint24[]","internalType":"uint24[]"}],"outputs":[],"stateMutability":"nonpayable"},{"type":"function","name":"stakingToken","inputs":[],"outputs":[{"name":"","type":"address","internalType":"contract IERC20"}],"stateMutability":"view"},{"type":"function","name":"transferOwnership","inputs":[{"name":"newOwner","type":"address","internalType":"address"}],"outputs":[],"stateMutability":"nonpayable"},{"type":"function","name":"unstakePixel","inputs":[{"name":"pixelId","type":"uint16","internalType":"uint16"}],"outputs":[],"stateMutability":"nonpayable"},{"type":"function","name":"unstakePixels","inputs":[{"name":"pixelIds","type":"uint16[]","internalType":"uint16[]"}],"outputs":[],"stateMutability":"nonpayable"},{"type":"event","name":"OwnershipTransferred","inputs":[{"name":"previousOwner","type":"address","indexed":true,"internalType":"address"},{"name":"newOwner","type":"address","indexed":true,"internalType":"address"}],"anonymous":false},{"type":"event","name":"PixelColorChanged","inputs":[{"name":"pixelId","type":"uint16","indexed":false,"internalType":"uint16"},{"name":"color","type":"uint24","indexed":false,"internalType":"uint24"}],"anonymous":false},{"type":"event","name":"PixelStaked","inputs":[{"name":"staker","type":"address","indexed":false,"internalType":"address"},{"name":"pixelId","type":"uint16","indexed":false,"internalType":"uint16"},{"name":"amount","type":"uint256","indexed":false,"internalType":"uint256"},{"name":"color","type":"uint24","indexed":false,"internalType":"uint24"}],"anonymous":false},{"type":"event","name":"PixelUnstaked","inputs":[{"name":"staker","type":"address","indexed":false,"internalType":"address"},{"name":"pixelId","type":"uint16","indexed":false,"internalType":"uint16"}],"anonymous":false},{"type":"event","name":"PixelsColorChanged","inputs":[{"name":"pixelIds","type":"uint16[]","indexed":false,"internalType":"uint16[]"},{"name":"colors","type":"uint24[]","indexed":false,"internalType":"uint24[]"}],"anonymous":false},{"type":"event","name":"PixelsStaked","inputs":[{"name":"staker","type":"address","indexed":false,"internalType":"address"},{"name":"pixelIds","type":"uint16[]","indexed":false,"internalType":"uint16[]"},{"name":"amounts","type":"uint256[]","indexed":false,"internalType":"uint256[]"},{"name":"colors","type":"uint24[]","indexed":false,"internalType":"uint24[]"}],"anonymous":false},{"type":"event","name":"PixelsUnstaked","inputs":[{"name":"staker","type":"address","indexed":false,"internalType":"address"},{"name":"pixelIds","type":"uint16[]","indexed":false,"internalType":"uint16[]"}],"anonymous":false},{"type":"error","name":"ArrayLengthMismatch","inputs":[]},{"type":"error","name":"InsufficientStakeAmount","inputs":[]},{"type":"error","name":"InvalidPixelId","inputs":[]},{"type":"error","name":"InvalidToken","inputs":[]},{"type":"error","name":"NotPixelOwner","inputs":[]},{"type":"error","name":"OwnableInvalidOwner","inputs":[{"name":"owner","type":"address","internalType":"address"}]},{"type":"error","name":"OwnableUnauthorizedAccount","inputs":[{"name":"account","type":"address","internalType":"address"}]},{"type":"error","name":"SafeERC20FailedOperation","inputs":[{"name":"token","type":"address","internalType":"address"}]}],"bytecode":{"object":"0x60a060405234801562000010575f80fd5b50604051620012e0380380620012e0833981016040819052620000339162000110565b806001600160a01b0381166200006257604051631e4fbdf760e01b81525f600482015260240160405180910390fd5b6200006d81620000a9565b506001600160a01b038216620000965760405163c1ab6dc160e01b815260040160405180910390fd5b506001600160a01b03166080526200014d565b5f80546001600160a01b038381166001600160a01b0319831681178455604051919092169283917f8be0079c531659141344cd1fd0a4f28419497f9722a3daafe3b4186f6b6457e09190a35050565b6001600160a01b03811681146200010d575f80fd5b50565b5f806040838503121562000122575f80fd5b82516200012f81620000f8565b60208401519092506200014281620000f8565b809150509250929050565b608051611150620001905f395f818161013d0152818161045d015281816105780152818161073a0152818161082f0152818161090f015261096a01526111505ff3fe608060405234801561000f575f80fd5b50600436106100cb575f3560e01c806372f702f3116100885780638da5cb5b116100635780638da5cb5b146101a95780639349ec77146101b9578063a29497c214610220578063f2fde38b1461023b575f80fd5b806372f702f3146101385780637fc4eda81461017c5780638acbcd4014610196575f80fd5b80630608b7b8146100cf5780633d219c42146100e45780633d25b1c0146100f757806355c7eff21461010a5780636bc1e74c1461011d578063715018a614610130575b5f80fd5b6100e26100dd366004610d09565b61024e565b005b6100e26100f2366004610d70565b610387565b6100e2610105366004610e03565b610636565b6100e2610118366004610e58565b6107a1565b6100e261012b366004610e8a565b610897565b6100e2610a0b565b61015f7f000000000000000000000000000000000000000000000000000000000000000081565b6040516001600160a01b0390911681526020015b60405180910390f35b610184606481565b60405160ff9091168152602001610173565b6100e26101a4366004610ec3565b610a1e565b5f546001600160a01b031661015f565b6101f76101c7366004610e58565b600160208190525f918252604090912080549101546001600160a01b03821691600160a01b900462ffffff169083565b604080516001600160a01b03909416845262ffffff909216602084015290820152606001610173565b610228610ae7565b60405161ffff9091168152602001610173565b6100e2610249366004610ef4565b610af5565b82811461026e5760405163512509d360e11b815260040160405180910390fd5b5f5b60ff8116841115610343575f60015f87878560ff1681811061029457610294610f1a565b90506020020160208101906102a99190610e58565b61ffff16815260208101919091526040015f2080549091506001600160a01b031633146102e957604051631fd76bab60e21b815260040160405180910390fd5b83838360ff168181106102fe576102fe610f1a565b90506020020160208101906103139190610f2e565b815462ffffff91909116600160a01b0262ffffff60a01b199091161790558061033b81610f5b565b915050610270565b507fd8a1a7dd3a92802bb24236f3eed77c51cc8ce874bd2e3e7ba57bab8a24b73040848484846040516103799493929190610fef565b60405180910390a150505050565b84831415806103965750828114155b156103b45760405163512509d360e11b815260040160405180910390fd5b5f805b8681101561044f576103ca606480611020565b61ffff168888838181106103e0576103e0610f1a565b90506020020160208101906103f59190610e58565b61ffff161061041757604051633f943c2f60e21b815260040160405180910390fd5b85858281811061042957610429610f1a565b905060200201358261043b9190611046565b9150806104478161105f565b9150506103b7565b506104856001600160a01b037f000000000000000000000000000000000000000000000000000000000000000016333084610b37565b5f5b60ff81168711156105e9575f88888360ff168181106104a8576104a8610f1a565b90506020020160208101906104bd9190610e58565b90505f87878460ff168181106104d5576104d5610f1a565b9050602002013590505f86868560ff168181106104f4576104f4610f1a565b90506020020160208101906105099190610f2e565b61ffff84165f908152600160208190526040909120908101549192509083116105455760405163a8ded35f60e01b815260040160405180910390fd5b805460018201546001600160a01b0390911690811580159061056657505f81115b1561059f5761059f6001600160a01b037f0000000000000000000000000000000000000000000000000000000000000000168383610ba4565b5050805460018201939093556001600160b81b03199092163362ffffff60a01b191617600160a01b62ffffff929092169190910217905550806105e181610f5b565b915050610487565b507feb646b837913a3240e8d79d031282b862928c46598074f2970e6918d52956fc6338888888888886040516106259796959493929190611077565b60405180910390a150505050505050565b5f805b828110156107265761064c606480611020565b61ffff1684848381811061066257610662610f1a565b90506020020160208101906106779190610e58565b61ffff161061069957604051633f943c2f60e21b815260040160405180910390fd5b5f60015f8686858181106106af576106af610f1a565b90506020020160208101906106c49190610e58565b61ffff16815260208101919091526040015f208054909150336001600160a01b03909116036107135760018101546106fc9084611046565b81545f60018401556001600160b81b031916825592505b508061071e8161105f565b915050610639565b508015610761576107616001600160a01b037f0000000000000000000000000000000000000000000000000000000000000000163383610ba4565b7fd94dfeba12181d5380848df53e2df3d51a2416cf3919625e5b52b9b5c3c103d2338484604051610794939291906110ed565b60405180910390a1505050565b806107ad606480611020565b61ffff168161ffff16106107d457604051633f943c2f60e21b815260040160405180910390fd5b61ffff82165f90815260016020526040902080546001600160a01b0316331461081057604051631fd76bab60e21b815260040160405180910390fd5b60018101805482545f9092556001600160b81b0319909116825561085e7f00000000000000000000000000000000000000000000000000000000000000006001600160a01b03163383610ba4565b6040805133815261ffff861660208201527f6122dcd2e09a788e6ce8b84a9bafd6eb1bf411d3ea0bc12fe5dad31a850020a79101610379565b826108a3606480611020565b61ffff168161ffff16106108ca57604051633f943c2f60e21b815260040160405180910390fd5b61ffff84165f9081526001602081905260409091209081015484116109025760405163a8ded35f60e01b815260040160405180910390fd5b6109376001600160a01b037f000000000000000000000000000000000000000000000000000000000000000016333087610b37565b805460018201546001600160a01b0390911690811580159061095857505f81115b15610991576109916001600160a01b037f0000000000000000000000000000000000000000000000000000000000000000168383610ba4565b82546001840187905562ffffff8616600160a01b810262ffffff60a01b19339081166001600160b81b0319909416939093171785556040805192835261ffff8a166020840152820188905260608201527f78f3ab8786803634044daaef5059fe2c4ea9510242b9799afd71a6ed65bf97d490608001610625565b610a13610bda565b610a1c5f610c06565b565b81610a2a606480611020565b61ffff168161ffff1610610a5157604051633f943c2f60e21b815260040160405180910390fd5b61ffff83165f90815260016020526040902080546001600160a01b03163314610a8d57604051631fd76bab60e21b815260040160405180910390fd5b805462ffffff60a01b1916600160a01b62ffffff85169081029190911782556040805161ffff8716815260208101929092527f15c0a060bc7f6d139568fc35160a95ff15f372c95e674a6eda6c602ab1796a459101610379565b610af2606480611020565b81565b610afd610bda565b6001600160a01b038116610b2b57604051631e4fbdf760e01b81525f60048201526024015b60405180910390fd5b610b3481610c06565b50565b6040516001600160a01b038481166024830152838116604483015260648201839052610b9e9186918216906323b872dd906084015b604051602081830303815290604052915060e01b6020820180516001600160e01b038381831617835250505050610c55565b50505050565b6040516001600160a01b03838116602483015260448201839052610bd591859182169063a9059cbb90606401610b6c565b505050565b5f546001600160a01b03163314610a1c5760405163118cdaa760e01b8152336004820152602401610b22565b5f80546001600160a01b038381166001600160a01b0319831681178455604051919092169283917f8be0079c531659141344cd1fd0a4f28419497f9722a3daafe3b4186f6b6457e09190a35050565b5f8060205f8451602086015f885af180610c74576040513d5f823e3d81fd5b50505f513d91508115610c8b578060011415610c98565b6001600160a01b0384163b155b15610b9e57604051635274afe760e01b81526001600160a01b0385166004820152602401610b22565b5f8083601f840112610cd1575f80fd5b50813567ffffffffffffffff811115610ce8575f80fd5b6020830191508360208260051b8501011115610d02575f80fd5b9250929050565b5f805f8060408587031215610d1c575f80fd5b843567ffffffffffffffff80821115610d33575f80fd5b610d3f88838901610cc1565b90965094506020870135915080821115610d57575f80fd5b50610d6487828801610cc1565b95989497509550505050565b5f805f805f8060608789031215610d85575f80fd5b863567ffffffffffffffff80821115610d9c575f80fd5b610da88a838b01610cc1565b90985096506020890135915080821115610dc0575f80fd5b610dcc8a838b01610cc1565b90965094506040890135915080821115610de4575f80fd5b50610df189828a01610cc1565b979a9699509497509295939492505050565b5f8060208385031215610e14575f80fd5b823567ffffffffffffffff811115610e2a575f80fd5b610e3685828601610cc1565b90969095509350505050565b803561ffff81168114610e53575f80fd5b919050565b5f60208284031215610e68575f80fd5b610e7182610e42565b9392505050565b803562ffffff81168114610e53575f80fd5b5f805f60608486031215610e9c575f80fd5b610ea584610e42565b925060208401359150610eba60408501610e78565b90509250925092565b5f8060408385031215610ed4575f80fd5b610edd83610e42565b9150610eeb60208401610e78565b90509250929050565b5f60208284031215610f04575f80fd5b81356001600160a01b0381168114610e71575f80fd5b634e487b7160e01b5f52603260045260245ffd5b5f60208284031215610f3e575f80fd5b610e7182610e78565b634e487b7160e01b5f52601160045260245ffd5b5f60ff821660ff8103610f7057610f70610f47565b60010192915050565b8183525f60208085019450825f5b85811015610fae5761ffff610f9b83610e42565b1687529582019590820190600101610f87565b509495945050505050565b8183525f60208085019450825f5b85811015610fae5762ffffff610fdc83610e78565b1687529582019590820190600101610fc7565b604081525f611002604083018688610f79565b8281036020840152611015818587610fb9565b979650505050505050565b61ffff81811683821602808216919082811461103e5761103e610f47565b505092915050565b8082018082111561105957611059610f47565b92915050565b5f6001820161107057611070610f47565b5060010190565b6001600160a01b03881681526080602082018190525f9061109b908301888a610f79565b82810360408401528581526001600160fb1b038611156110b9575f80fd5b8560051b8088602084013701828103602090810160608501526110df9082018587610fb9565b9a9950505050505050505050565b6001600160a01b03841681526040602082018190525f906111119083018486610f79565b9594505050505056fea264697066735822122057689f800d6c9b59f3bbf1549f2f12491409f4d84da54886ab69f9f4f4df947964736f6c63430008140033","linkReferences":{}},"methodIdentifiers":{"GRID_SIZE()":"7fc4eda8","TOTAL_PIXELS()":"a29497c2","changePixelColor(uint16,uint24)":"8acbcd40","changePixelsColors(uint16[],uint24[])":"0608b7b8","owner()":"8da5cb5b","pixels(uint16)":"9349ec77","renounceOwnership()":"715018a6","stakePixel(uint16,uint256,uint24)":"6bc1e74c","stakePixels(uint16[],uint256[],uint24[])":"3d219c42","stakingToken()":"72f702f3","transferOwnership(address)":"f2fde38b","unstakePixel(uint16)":"55c7eff2","unstakePixels(uint16[])":"3d25b1c0"},"id":32}