{"abi":[{"type":"constructor","inputs":[{"name":"_stakingToken","type":"address","internalType":"address"},{"name":"_stakingContract","type":"address","internalType":"address"},{"name":"_factoryAddress","type":"address","internalType":"address"},{"name":"initialOwner","type":"address","internalType":"address"}],"stateMutability":"nonpayable"},{"type":"function","name":"changePixelsColors","inputs":[{"name":"pixelIds","type":"uint16[]","internalType":"uint16[]"},{"name":"colors","type":"uint24[]","internalType":"uint24[]"}],"outputs":[],"stateMutability":"nonpayable"},{"type":"function","name":"creator","inputs":[],"outputs":[{"name":"","type":"address","internalType":"address"}],"stateMutability":"view"},{"type":"function","name":"deposit","inputs":[{"name":"amount","type":"uint256","internalType":"uint256"}],"outputs":[],"stateMutability":"payable"},{"type":"function","name":"factory","inputs":[],"outputs":[{"name":"","type":"address","internalType":"contract IProjectFactory"}],"stateMutability":"view"},{"type":"function","name":"owner","inputs":[],"outputs":[{"name":"","type":"address","internalType":"address"}],"stateMutability":"view"},{"type":"function","name":"renounceOwnership","inputs":[],"outputs":[],"stateMutability":"nonpayable"},{"type":"function","name":"stakePixels","inputs":[{"name":"pixelIds","type":"uint16[]","internalType":"uint16[]"},{"name":"amounts","type":"uint256[]","internalType":"uint256[]"},{"name":"colors","type":"uint24[]","internalType":"uint24[]"}],"outputs":[],"stateMutability":"nonpayable"},{"type":"function","name":"stakingContract","inputs":[],"outputs":[{"name":"","type":"address","internalType":"contract IStakingContract"}],"stateMutability":"view"},{"type":"function","name":"stakingToken","inputs":[],"outputs":[{"name":"","type":"address","internalType":"contract IERC20"}],"stateMutability":"view"},{"type":"function","name":"transferOwnership","inputs":[{"name":"newOwner","type":"address","internalType":"address"}],"outputs":[],"stateMutability":"nonpayable"},{"type":"function","name":"userBalance","inputs":[{"name":"","type":"address","internalType":"address"}],"outputs":[{"name":"","type":"uint256","internalType":"uint256"}],"stateMutability":"view"},{"type":"function","name":"withdraw","inputs":[{"name":"amount","type":"uint256","internalType":"uint256"},{"name":"pixelIdToUnstake","type":"uint16","internalType":"uint16"}],"outputs":[],"stateMutability":"nonpayable"},{"type":"event","name":"OwnershipTransferred","inputs":[{"name":"previousOwner","type":"address","indexed":true,"internalType":"address"},{"name":"newOwner","type":"address","indexed":true,"internalType":"address"}],"anonymous":false},{"type":"error","name":"ApprovalFailed","inputs":[]},{"type":"error","name":"DepositTooLow","inputs":[]},{"type":"error","name":"InsufficientBalanceAfterUnstake","inputs":[]},{"type":"error","name":"InsufficientContractBalance","inputs":[]},{"type":"error","name":"InsufficientUserBalance","inputs":[]},{"type":"error","name":"OwnableInvalidOwner","inputs":[{"name":"owner","type":"address","internalType":"address"}]},{"type":"error","name":"OwnableUnauthorizedAccount","inputs":[{"name":"account","type":"address","internalType":"address"}]},{"type":"error","name":"SafeERC20FailedOperation","inputs":[{"name":"token","type":"address","internalType":"address"}]},{"type":"error","name":"TokenTransferFailed","inputs":[]},{"type":"error","name":"TransferFromFailed","inputs":[]},{"type":"error","name":"WithdrawTooLow","inputs":[]}],"bytecode":{"object":"0x60c060405234801562000010575f80fd5b5060405162000f2138038062000f21833981016040819052620000339162000182565b806001600160a01b0381166200006257604051631e4fbdf760e01b81525f600482015260240160405180910390fd5b6200006d8162000117565b50600180546001600160a01b038681166001600160a01b031992831681179093556002805487831693168317905533608052841660a05260405163095ea7b360e01b815260048101919091525f19602482015263095ea7b3906044016020604051808303815f875af1158015620000e6573d5f803e3d5ffd5b505050506040513d601f19601f820116820180604052508101906200010c9190620001dc565b505050505062000204565b5f80546001600160a01b038381166001600160a01b0319831681178455604051919092169283917f8be0079c531659141344cd1fd0a4f28419497f9722a3daafe3b4186f6b6457e09190a35050565b80516001600160a01b03811681146200017d575f80fd5b919050565b5f805f806080858703121562000196575f80fd5b620001a18562000166565b9350620001b16020860162000166565b9250620001c16040860162000166565b9150620001d16060860162000166565b905092959194509250565b5f60208284031215620001ed575f80fd5b81518015158114620001fd575f80fd5b9392505050565b60805160a051610cee620002335f395f81816102040152818161062c015261071a01525f60f80152610cee5ff3fe6080604052600436106100a5575f3560e01c806372f702f31161006257806372f702f3146101a55780638da5cb5b146101c4578063b6b55f25146101e0578063c45a0155146101f3578063ee99205c14610226578063f2fde38b14610245575f80fd5b80630103c92b146100a957806302d05d3f146100e75780630608b7b8146101325780633d219c421461015357806351b27c8514610172578063715018a614610191575b5f80fd5b3480156100b4575f80fd5b506100d46100c336600461094b565b60036020525f908152604090205481565b6040519081526020015b60405180910390f35b3480156100f2575f80fd5b5061011a7f000000000000000000000000000000000000000000000000000000000000000081565b6040516001600160a01b0390911681526020016100de565b34801561013d575f80fd5b5061015161014c3660046109c0565b610264565b005b34801561015e575f80fd5b5061015161016d366004610a27565b6102d4565b34801561017d575f80fd5b5061015161018c366004610ad0565b61041f565b34801561019c575f80fd5b50610151610690565b3480156101b0575f80fd5b5060015461011a906001600160a01b031681565b3480156101cf575f80fd5b505f546001600160a01b031661011a565b6101516101ee366004610afa565b6106a3565b3480156101fe575f80fd5b5061011a7f000000000000000000000000000000000000000000000000000000000000000081565b348015610231575f80fd5b5060025461011a906001600160a01b031681565b348015610250575f80fd5b5061015161025f36600461094b565b61077f565b61026c6107c1565b60025460405162c116f760e31b81526001600160a01b0390911690630608b7b8906102a1908790879087908790600401610b9a565b5f604051808303815f87803b1580156102b8575f80fd5b505af11580156102ca573d5f803e3d5ffd5b5050505050505050565b6102dc6107c1565b5f805b60ff81168511156103255785858260ff168181106102ff576102ff610bcb565b90506020020135826103119190610bf3565b91508061031d81610c0c565b9150506102df565b506001546040516370a0823160e01b815230600482015282916001600160a01b0316906370a0823190602401602060405180830381865afa15801561036c573d5f803e3d5ffd5b505050506040513d601f19601f820116820180604052508101906103909190610c2a565b10156103af5760405163786e0a9960e01b815260040160405180910390fd5b600254604051631e90ce2160e11b81526001600160a01b0390911690633d219c42906103e9908a908a908a908a908a908a90600401610c41565b5f604051808303815f87803b158015610400575f80fd5b505af1158015610412573d5f803e3d5ffd5b5050505050505050505050565b815f0361043f57604051639fdb3e0f60e01b815260040160405180910390fd5b335f9081526003602052604090205482111561046e576040516324aa779360e21b815260040160405180910390fd5b6001546040516370a0823160e01b81523060048201525f916001600160a01b0316906370a0823190602401602060405180830381865afa1580156104b4573d5f803e3d5ffd5b505050506040513d601f19601f820116820180604052508101906104d89190610c2a565b9050828110156105ab57600254604051632ae3f7f960e11b815261ffff841660048201526001600160a01b03909116906355c7eff2906024015f604051808303815f87803b158015610528575f80fd5b505af115801561053a573d5f803e3d5ffd5b50506001546040516370a0823160e01b81523060048201526001600160a01b0390911692506370a082319150602401602060405180830381865afa158015610584573d5f803e3d5ffd5b505050506040513d601f19601f820116820180604052508101906105a89190610c2a565b90505b828110156105cc576040516317e4aa1760e01b815260040160405180910390fd5b335f90815260036020526040812080548592906105ea908490610ca5565b9091555050600154610606906001600160a01b031633856107ed565b6040516309f6eab360e01b81523360048201526024810184905261ffff831660448201527f00000000000000000000000000000000000000000000000000000000000000006001600160a01b0316906309f6eab3906064015f604051808303815f87803b158015610675575f80fd5b505af1158015610687573d5f803e3d5ffd5b50505050505050565b6106986107c1565b6106a15f610851565b565b805f036106c357604051632b7786bd60e21b815260040160405180910390fd5b6001546106db906001600160a01b03163330846108a0565b335f90815260036020526040812080548392906106f9908490610bf3565b9091555050604051632ad4ef7760e21b8152336004820152602481018290527f00000000000000000000000000000000000000000000000000000000000000006001600160a01b03169063ab53bddc9034906044015f604051808303818588803b158015610765575f80fd5b505af1158015610777573d5f803e3d5ffd5b505050505050565b6107876107c1565b6001600160a01b0381166107b557604051631e4fbdf760e01b81525f60048201526024015b60405180910390fd5b6107be81610851565b50565b5f546001600160a01b031633146106a15760405163118cdaa760e01b81523360048201526024016107ac565b6040516001600160a01b0383811660248301526044820183905261084c91859182169063a9059cbb906064015b604051602081830303815290604052915060e01b6020820180516001600160e01b0383818316178352505050506108df565b505050565b5f80546001600160a01b038381166001600160a01b0319831681178455604051919092169283917f8be0079c531659141344cd1fd0a4f28419497f9722a3daafe3b4186f6b6457e09190a35050565b6040516001600160a01b0384811660248301528381166044830152606482018390526108d99186918216906323b872dd9060840161081a565b50505050565b5f8060205f8451602086015f885af1806108fe576040513d5f823e3d81fd5b50505f513d91508115610915578060011415610922565b6001600160a01b0384163b155b156108d957604051635274afe760e01b81526001600160a01b03851660048201526024016107ac565b5f6020828403121561095b575f80fd5b81356001600160a01b0381168114610971575f80fd5b9392505050565b5f8083601f840112610988575f80fd5b50813567ffffffffffffffff81111561099f575f80fd5b6020830191508360208260051b85010111156109b9575f80fd5b9250929050565b5f805f80604085870312156109d3575f80fd5b843567ffffffffffffffff808211156109ea575f80fd5b6109f688838901610978565b90965094506020870135915080821115610a0e575f80fd5b50610a1b87828801610978565b95989497509550505050565b5f805f805f8060608789031215610a3c575f80fd5b863567ffffffffffffffff80821115610a53575f80fd5b610a5f8a838b01610978565b90985096506020890135915080821115610a77575f80fd5b610a838a838b01610978565b90965094506040890135915080821115610a9b575f80fd5b50610aa889828a01610978565b979a9699509497509295939492505050565b803561ffff81168114610acb575f80fd5b919050565b5f8060408385031215610ae1575f80fd5b82359150610af160208401610aba565b90509250929050565b5f60208284031215610b0a575f80fd5b5035919050565b8183525f60208085019450825f5b85811015610b465761ffff610b3383610aba565b1687529582019590820190600101610b1f565b509495945050505050565b8183525f60208085019450825f805b86811015610b8e57823562ffffff8116808214610b7b578384fd5b8952509683019691830191600101610b60565b50959695505050505050565b604081525f610bad604083018688610b11565b8281036020840152610bc0818587610b51565b979650505050505050565b634e487b7160e01b5f52603260045260245ffd5b634e487b7160e01b5f52601160045260245ffd5b80820180821115610c0657610c06610bdf565b92915050565b5f60ff821660ff8103610c2157610c21610bdf565b60010192915050565b5f60208284031215610c3a575f80fd5b5051919050565b606081525f610c5460608301888a610b11565b82810360208401528581526001600160fb1b03861115610c72575f80fd5b8560051b808860208401370182810360209081016040850152610c989082018587610b51565b9998505050505050505050565b81810381811115610c0657610c06610bdf56fea2646970667358221220302c1989ecdca14a37d850c725fd002b82f6f85d6ab567b2d8a403401477d36864736f6c63430008140033","linkReferences":{}},"methodIdentifiers":{"changePixelsColors(uint16[],uint24[])":"0608b7b8","creator()":"02d05d3f","deposit(uint256)":"b6b55f25","factory()":"c45a0155","owner()":"8da5cb5b","renounceOwnership()":"715018a6","stakePixels(uint16[],uint256[],uint24[])":"3d219c42","stakingContract()":"ee99205c","stakingToken()":"72f702f3","transferOwnership(address)":"f2fde38b","userBalance(address)":"0103c92b","withdraw(uint256,uint16)":"51b27c85"},"id":33}